{
  "_format": "hh-sol-artifact-1",
  "contractName": "Youtube",
  "sourceName": "contracts/Youtube.sol",
  "abi": [
    {
      "inputs": [],
      "stateMutability": "nonpayable",
      "type": "constructor"
    },
    {
      "inputs": [],
      "name": "angka",
      "outputs": [
        {
          "internalType": "uint256",
          "name": "",
          "type": "uint256"
        }
      ],
      "stateMutability": "view",
      "type": "function"
    },
    {
      "inputs": [],
      "name": "getPemilik",
      "outputs": [
        {
          "internalType": "address",
          "name": "",
          "type": "address"
        }
      ],
      "stateMutability": "view",
      "type": "function"
    },
    {
      "inputs": [],
      "name": "inc",
      "outputs": [],
      "stateMutability": "nonpayable",
      "type": "function"
    },
    {
      "inputs": [
        {
          "internalType": "string",
          "name": "_text",
          "type": "string"
        }
      ],
      "name": "setText",
      "outputs": [],
      "stateMutability": "nonpayable",
      "type": "function"
    },
    {
      "inputs": [],
      "name": "textRaw",
      "outputs": [
        {
          "internalType": "string",
          "name": "",
          "type": "string"
        }
      ],
      "stateMutability": "view",
      "type": "function"
    }
  ],
  "bytecode": "0x6080604052348015600f57600080fd5b5033600160006101000a81548173ffffffffffffffffffffffffffffffffffffffff021916908373ffffffffffffffffffffffffffffffffffffffff160217905550610887806100606000396000f3fe608060405234801561001057600080fd5b50600436106100575760003560e01c8063371303c01461005c5780635d3a1f9d146100665780637176cbcc14610082578063a6be34d6146100a0578063b43e7fd1146100be575b600080fd5b6100646100dc565b005b610080600480360381019061007b91906102c9565b610186565b005b61008a61019c565b60405161009791906103a6565b60405180910390f35b6100a861022a565b6040516100b591906103e1565b60405180910390f35b6100c6610230565b6040516100d3919061043d565b60405180910390f35b600160009054906101000a900473ffffffffffffffffffffffffffffffffffffffff1673ffffffffffffffffffffffffffffffffffffffff163373ffffffffffffffffffffffffffffffffffffffff161461016c576040517f08c379a0000000000000000000000000000000000000000000000000000000008152600401610163906104a4565b60405180910390fd5b6002600081548092919061017f906104f3565b9190505550565b818160009182610197929190610781565b505050565b600080546101a9906105a4565b80601f01602080910402602001604051908101604052809291908181526020018280546101d5906105a4565b80156102225780601f106101f757610100808354040283529160200191610222565b820191906000526020600020905b81548152906001019060200180831161020557829003601f168201915b505050505081565b60025481565b6000600160009054906101000a900473ffffffffffffffffffffffffffffffffffffffff16905090565b600080fd5b600080fd5b600080fd5b600080fd5b600080fd5b60008083601f84011261028957610288610264565b5b8235905067ffffffffffffffff8111156102a6576102a5610269565b5b6020830191508360018202830111156102c2576102c161026e565b5b9250929050565b600080602083850312156102e0576102df61025a565b5b600083013567ffffffffffffffff8111156102fe576102fd61025f565b5b61030a85828601610273565b92509250509250929050565b600081519050919050565b600082825260208201905092915050565b60005b83811015610350578082015181840152602081019050610335565b60008484015250505050565b6000601f19601f8301169050919050565b600061037882610316565b6103828185610321565b9350610392818560208601610332565b61039b8161035c565b840191505092915050565b600060208201905081810360008301526103c0818461036d565b905092915050565b6000819050919050565b6103db816103c8565b82525050565b60006020820190506103f660008301846103d2565b92915050565b600073ffffffffffffffffffffffffffffffffffffffff82169050919050565b6000610427826103fc565b9050919050565b6104378161041c565b82525050565b6000602082019050610452600083018461042e565b92915050565b7f4e4f545f4f574e45520000000000000000000000000000000000000000000000600082015250565b600061048e600983610321565b915061049982610458565b602082019050919050565b600060208201905081810360008301526104bd81610481565b9050919050565b7f4e487b7100000000000000000000000000000000000000000000000000000000600052601160045260246000fd5b60006104fe826103c8565b91507fffffffffffffffffffffffffffffffffffffffffffffffffffffffffffffffff82036105305761052f6104c4565b5b600182019050919050565b600082905092915050565b7f4e487b7100000000000000000000000000000000000000000000000000000000600052604160045260246000fd5b7f4e487b7100000000000000000000000000000000000000000000000000000000600052602260045260246000fd5b600060028204905060018216806105bc57607f821691505b6020821081036105cf576105ce610575565b5b50919050565b60008190508160005260206000209050919050565b60006020601f8301049050919050565b600082821b905092915050565b6000600883026106377fffffffffffffffffffffffffffffffffffffffffffffffffffffffffffffffff826105fa565b61064186836105fa565b95508019841693508086168417925050509392505050565b6000819050919050565b600061067e610679610674846103c8565b610659565b6103c8565b9050919050565b6000819050919050565b61069883610663565b6106ac6106a482610685565b848454610607565b825550505050565b600090565b6106c16106b4565b6106cc81848461068f565b505050565b5b818110156106f0576106e56000826106b9565b6001810190506106d2565b5050565b601f82111561073557610706816105d5565b61070f846105ea565b8101602085101561071e578190505b61073261072a856105ea565b8301826106d1565b50505b505050565b600082821c905092915050565b60006107586000198460080261073a565b1980831691505092915050565b60006107718383610747565b9150826002028217905092915050565b61078b838361053b565b67ffffffffffffffff8111156107a4576107a3610546565b5b6107ae82546105a4565b6107b98282856106f4565b6000601f8311600181146107e857600084156107d6578287013590505b6107e08582610765565b865550610848565b601f1984166107f6866105d5565b60005b8281101561081e578489013582556001820191506020850194506020810190506107f9565b8683101561083b5784890135610837601f891682610747565b8355505b6001600288020188555050505b5050505050505056fea26469706673582212201a201eb61c598e6b76b97242fc8cbc4d03f6c29a1c70b868f16960a0b695161964736f6c634300081c0033",
  "linkReferences": {},
  "deployedLinkReferences": {}
}